{
  "_format": "hh-sol-artifact-1",
  "contractName": "Executor",
  "sourceName": "contracts/Executor.sol",
  "abi": [
    {
      "inputs": [
        {
          "internalType": "address",
          "name": "_vault",
          "type": "address"
        },
        {
          "internalType": "address",
          "name": "_router",
          "type": "address"
        },
        {
          "internalType": "address",
          "name": "_authorizedExecutor",
          "type": "address"
        }
      ],
      "stateMutability": "nonpayable",
      "type": "constructor"
    },
    {
      "inputs": [
        {
          "internalType": "address",
          "name": "owner",
          "type": "address"
        }
      ],
      "name": "OwnableInvalidOwner",
      "type": "error"
    },
    {
      "inputs": [
        {
          "internalType": "address",
          "name": "account",
          "type": "address"
        }
      ],
      "name": "OwnableUnauthorizedAccount",
      "type": "error"
    },
    {
      "inputs": [],
      "name": "ReentrancyGuardReentrantCall",
      "type": "error"
    },
    {
      "inputs": [
        {
          "internalType": "address",
          "name": "token",
          "type": "address"
        }
      ],
      "name": "SafeERC20FailedOperation",
      "type": "error"
    },
    {
      "anonymous": false,
      "inputs": [
        {
          "indexed": true,
          "internalType": "address",
          "name": "executor",
          "type": "address"
        }
      ],
      "name": "ExecutorAuthorized",
      "type": "event"
    },
    {
      "anonymous": false,
      "inputs": [
        {
          "indexed": false,
          "internalType": "uint256",
          "name": "maxSlippageBps",
          "type": "uint256"
        }
      ],
      "name": "MaxSlippageUpdated",
      "type": "event"
    },
    {
      "anonymous": false,
      "inputs": [
        {
          "indexed": true,
          "internalType": "address",
          "name": "token",
          "type": "address"
        },
        {
          "indexed": true,
          "internalType": "address",
          "name": "feed",
          "type": "address"
        }
      ],
      "name": "OracleFeedSet",
      "type": "event"
    },
    {
      "anonymous": false,
      "inputs": [
        {
          "indexed": true,
          "internalType": "address",
          "name": "tokenIn",
          "type": "address"
        },
        {
          "indexed": true,
          "internalType": "address",
          "name": "tokenOut",
          "type": "address"
        },
        {
          "indexed": false,
          "internalType": "uint256",
          "name": "oraclePrice",
          "type": "uint256"
        },
        {
          "indexed": false,
          "internalType": "uint256",
          "name": "routerPrice",
          "type": "uint256"
        },
        {
          "indexed": false,
          "internalType": "uint256",
          "name": "deviationBps",
          "type": "uint256"
        }
      ],
      "name": "OraclePriceValidated",
      "type": "event"
    },
    {
      "anonymous": false,
      "inputs": [
        {
          "indexed": false,
          "internalType": "bool",
          "name": "enabled",
          "type": "bool"
        }
      ],
      "name": "OracleValidationToggled",
      "type": "event"
    },
    {
      "anonymous": false,
      "inputs": [
        {
          "indexed": true,
          "internalType": "address",
          "name": "previousOwner",
          "type": "address"
        },
        {
          "indexed": true,
          "internalType": "address",
          "name": "newOwner",
          "type": "address"
        }
      ],
      "name": "OwnershipTransferred",
      "type": "event"
    },
    {
      "anonymous": false,
      "inputs": [
        {
          "indexed": true,
          "internalType": "address",
          "name": "router",
          "type": "address"
        }
      ],
      "name": "RouterSet",
      "type": "event"
    },
    {
      "anonymous": false,
      "inputs": [
        {
          "indexed": true,
          "internalType": "uint256",
          "name": "tradeId",
          "type": "uint256"
        },
        {
          "indexed": true,
          "internalType": "address",
          "name": "user",
          "type": "address"
        },
        {
          "indexed": false,
          "internalType": "address",
          "name": "tokenIn",
          "type": "address"
        },
        {
          "indexed": false,
          "internalType": "address",
          "name": "tokenOut",
          "type": "address"
        },
        {
          "indexed": false,
          "internalType": "uint256",
          "name": "amountIn",
          "type": "uint256"
        },
        {
          "indexed": false,
          "internalType": "uint256",
          "name": "amountOut",
          "type": "uint256"
        },
        {
          "indexed": false,
          "internalType": "uint256",
          "name": "timestamp",
          "type": "uint256"
        },
        {
          "indexed": false,
          "internalType": "uint256",
          "name": "strategyId",
          "type": "uint256"
        }
      ],
      "name": "TradeExecuted",
      "type": "event"
    },
    {
      "anonymous": false,
      "inputs": [
        {
          "indexed": true,
          "internalType": "address",
          "name": "vault",
          "type": "address"
        }
      ],
      "name": "VaultSet",
      "type": "event"
    },
    {
      "inputs": [],
      "name": "TRADE_DEADLINE",
      "outputs": [
        {
          "internalType": "uint256",
          "name": "",
          "type": "uint256"
        }
      ],
      "stateMutability": "view",
      "type": "function"
    },
    {
      "inputs": [],
      "name": "authorizedExecutor",
      "outputs": [
        {
          "internalType": "address",
          "name": "",
          "type": "address"
        }
      ],
      "stateMutability": "view",
      "type": "function"
    },
    {
      "inputs": [
        {
          "internalType": "address",
          "name": "user",
          "type": "address"
        },
        {
          "internalType": "address",
          "name": "tokenIn",
          "type": "address"
        },
        {
          "internalType": "address",
          "name": "tokenOut",
          "type": "address"
        },
        {
          "internalType": "uint256",
          "name": "amountIn",
          "type": "uint256"
        },
        {
          "internalType": "uint256",
          "name": "amountOutMin",
          "type": "uint256"
        },
        {
          "internalType": "address[]",
          "name": "path",
          "type": "address[]"
        },
        {
          "internalType": "uint256",
          "name": "strategyId",
          "type": "uint256"
        }
      ],
      "name": "executeTrade",
      "outputs": [
        {
          "internalType": "uint256",
          "name": "amountOut",
          "type": "uint256"
        }
      ],
      "stateMutability": "nonpayable",
      "type": "function"
    },
    {
      "inputs": [
        {
          "internalType": "uint256",
          "name": "amountIn",
          "type": "uint256"
        },
        {
          "internalType": "address[]",
          "name": "path",
          "type": "address[]"
        }
      ],
      "name": "getExpectedOutput",
      "outputs": [
        {
          "internalType": "uint256[]",
          "name": "amounts",
          "type": "uint256[]"
        }
      ],
      "stateMutability": "view",
      "type": "function"
    },
    {
      "inputs": [
        {
          "internalType": "uint256",
          "name": "tradeId",
          "type": "uint256"
        }
      ],
      "name": "getTrade",
      "outputs": [
        {
          "components": [
            {
              "internalType": "address",
              "name": "user",
              "type": "address"
            },
            {
              "internalType": "address",
              "name": "tokenIn",
              "type": "address"
            },
            {
              "internalType": "address",
              "name": "tokenOut",
              "type": "address"
            },
            {
              "internalType": "uint256",
              "name": "amountIn",
              "type": "uint256"
            },
            {
              "internalType": "uint256",
              "name": "amountOut",
              "type": "uint256"
            },
            {
              "internalType": "uint256",
              "name": "timestamp",
              "type": "uint256"
            },
            {
              "internalType": "uint256",
              "name": "strategyId",
              "type": "uint256"
            }
          ],
          "internalType": "struct Executor.Trade",
          "name": "",
          "type": "tuple"
        }
      ],
      "stateMutability": "view",
      "type": "function"
    },
    {
      "inputs": [],
      "name": "getTradeCount",
      "outputs": [
        {
          "internalType": "uint256",
          "name": "",
          "type": "uint256"
        }
      ],
      "stateMutability": "view",
      "type": "function"
    },
    {
      "inputs": [],
      "name": "maxSlippageBps",
      "outputs": [
        {
          "internalType": "uint256",
          "name": "",
          "type": "uint256"
        }
      ],
      "stateMutability": "view",
      "type": "function"
    },
    {
      "inputs": [
        {
          "internalType": "address",
          "name": "",
          "type": "address"
        }
      ],
      "name": "oracleFeeds",
      "outputs": [
        {
          "internalType": "address",
          "name": "",
          "type": "address"
        }
      ],
      "stateMutability": "view",
      "type": "function"
    },
    {
      "inputs": [],
      "name": "oracleValidationEnabled",
      "outputs": [
        {
          "internalType": "bool",
          "name": "",
          "type": "bool"
        }
      ],
      "stateMutability": "view",
      "type": "function"
    },
    {
      "inputs": [],
      "name": "owner",
      "outputs": [
        {
          "internalType": "address",
          "name": "",
          "type": "address"
        }
      ],
      "stateMutability": "view",
      "type": "function"
    },
    {
      "inputs": [
        {
          "internalType": "address",
          "name": "user",
          "type": "address"
        },
        {
          "internalType": "address[]",
          "name": "targetTokens",
          "type": "address[]"
        },
        {
          "internalType": "uint256[]",
          "name": "targetPercentages",
          "type": "uint256[]"
        }
      ],
      "name": "rebalance",
      "outputs": [],
      "stateMutability": "nonpayable",
      "type": "function"
    },
    {
      "inputs": [
        {
          "internalType": "address",
          "name": "token",
          "type": "address"
        },
        {
          "internalType": "uint256",
          "name": "amount",
          "type": "uint256"
        }
      ],
      "name": "recoverToken",
      "outputs": [],
      "stateMutability": "nonpayable",
      "type": "function"
    },
    {
      "inputs": [],
      "name": "renounceOwnership",
      "outputs": [],
      "stateMutability": "nonpayable",
      "type": "function"
    },
    {
      "inputs": [],
      "name": "router",
      "outputs": [
        {
          "internalType": "contract IUniswapV2Router",
          "name": "",
          "type": "address"
        }
      ],
      "stateMutability": "view",
      "type": "function"
    },
    {
      "inputs": [
        {
          "internalType": "address",
          "name": "_executor",
          "type": "address"
        }
      ],
      "name": "setAuthorizedExecutor",
      "outputs": [],
      "stateMutability": "nonpayable",
      "type": "function"
    },
    {
      "inputs": [
        {
          "internalType": "uint256",
          "name": "_maxSlippageBps",
          "type": "uint256"
        }
      ],
      "name": "setMaxSlippage",
      "outputs": [],
      "stateMutability": "nonpayable",
      "type": "function"
    },
    {
      "inputs": [
        {
          "internalType": "address",
          "name": "token",
          "type": "address"
        },
        {
          "internalType": "address",
          "name": "feed",
          "type": "address"
        }
      ],
      "name": "setOracleFeed",
      "outputs": [],
      "stateMutability": "nonpayable",
      "type": "function"
    },
    {
      "inputs": [
        {
          "internalType": "bool",
          "name": "enabled",
          "type": "bool"
        }
      ],
      "name": "setOracleValidation",
      "outputs": [],
      "stateMutability": "nonpayable",
      "type": "function"
    },
    {
      "inputs": [
        {
          "internalType": "address",
          "name": "_router",
          "type": "address"
        }
      ],
      "name": "setRouter",
      "outputs": [],
      "stateMutability": "nonpayable",
      "type": "function"
    },
    {
      "inputs": [
        {
          "internalType": "address",
          "name": "_vault",
          "type": "address"
        }
      ],
      "name": "setVault",
      "outputs": [],
      "stateMutability": "nonpayable",
      "type": "function"
    },
    {
      "inputs": [
        {
          "internalType": "address",
          "name": "user",
          "type": "address"
        },
        {
          "internalType": "address",
          "name": "token",
          "type": "address"
        },
        {
          "internalType": "uint256",
          "name": "maxLossPercentage",
          "type": "uint256"
        }
      ],
      "name": "stopLoss",
      "outputs": [],
      "stateMutability": "nonpayable",
      "type": "function"
    },
    {
      "inputs": [],
      "name": "tradeCount",
      "outputs": [
        {
          "internalType": "uint256",
          "name": "",
          "type": "uint256"
        }
      ],
      "stateMutability": "view",
      "type": "function"
    },
    {
      "inputs": [
        {
          "internalType": "uint256",
          "name": "",
          "type": "uint256"
        }
      ],
      "name": "trades",
      "outputs": [
        {
          "internalType": "address",
          "name": "user",
          "type": "address"
        },
        {
          "internalType": "address",
          "name": "tokenIn",
          "type": "address"
        },
        {
          "internalType": "address",
          "name": "tokenOut",
          "type": "address"
        },
        {
          "internalType": "uint256",
          "name": "amountIn",
          "type": "uint256"
        },
        {
          "internalType": "uint256",
          "name": "amountOut",
          "type": "uint256"
        },
        {
          "internalType": "uint256",
          "name": "timestamp",
          "type": "uint256"
        },
        {
          "internalType": "uint256",
          "name": "strategyId",
          "type": "uint256"
        }
      ],
      "stateMutability": "view",
      "type": "function"
    },
    {
      "inputs": [
        {
          "internalType": "address",
          "name": "newOwner",
          "type": "address"
        }
      ],
      "name": "transferOwnership",
      "outputs": [],
      "stateMutability": "nonpayable",
      "type": "function"
    },
    {
      "inputs": [],
      "name": "vault",
      "outputs": [
        {
          "internalType": "contract IVault",
          "name": "",
          "type": "address"
        }
      ],
      "stateMutability": "view",
      "type": "function"
    }
  ],
  "bytecode": "0x60806040523480156200001157600080fd5b5060405162002859380380620028598339810160408190526200003491620002d1565b33806200005c57604051631e4fbdf760e01b8152600060048201526024015b60405180910390fd5b620000678162000264565b50600180556001600160a01b038316620000c45760405162461bcd60e51b815260206004820152601f60248201527f4578656375746f723a20696e76616c6964207661756c74206164647265737300604482015260640162000053565b6001600160a01b0382166200011c5760405162461bcd60e51b815260206004820181905260248201527f4578656375746f723a20696e76616c696420726f757465722061646472657373604482015260640162000053565b6001600160a01b0381166200017f5760405162461bcd60e51b815260206004820152602260248201527f4578656375746f723a20696e76616c6964206578656375746f72206164647265604482015261737360f01b606482015260840162000053565b600280546001600160a01b038086166001600160a01b031992831681179093556003805486831690841617905560048054918516919092161790556101f46006556008805460ff191690556040517fe7ae49f883c825b05681b3e00e8be6fdea9ed2a8a45e4c6ecb9390fc44cce61590600090a26040516001600160a01b038316907fc6b438e6a8a59579ce6a4406cbd203b740e0d47b458aae6596339bcd40c40d1590600090a26040516001600160a01b038216907f52762435f58790076157ea2a4914a5a4d0aa0eb421588891377692f7fd3bc08290600090a25050506200031b565b600080546001600160a01b038381166001600160a01b0319831681178455604051919092169283917f8be0079c531659141344cd1fd0a4f28419497f9722a3daafe3b4186f6b6457e09190a35050565b80516001600160a01b0381168114620002cc57600080fd5b919050565b600080600060608486031215620002e757600080fd5b620002f284620002b4565b92506200030260208501620002b4565b91506200031260408501620002b4565b90509250925092565b61252e806200032b6000396000f3fe608060405234801561001057600080fd5b50600436106101735760003560e01c8063a3031b77116100de578063c568cef411610097578063e6d508ea11610071578063e6d508ea14610415578063f2fde38b14610428578063f887ea401461043b578063fbfa77cf1461044e57600080fd5b8063c568cef4146103b9578063c823b73c146103d9578063d188c0491461040257600080fd5b8063a3031b7714610366578063b29a81401461036e578063b8d169ac14610381578063bd55022a14610394578063c0d786551461039d578063c4aa7395146103b057600080fd5b806361f036131161013057806361f036131461030157806366fefa48146103145780636817031b1461033157806369fc954d14610344578063715018a61461034d5780638da5cb5b1461035557600080fd5b80630caf9a211461017857806313dd495b1461018d5780631e6c598e146101bd5780631f76e2721461025c5780632db25e051461027d57806343f68a49146102ee575b600080fd5b61018b610186366004611e04565b610461565b005b6004546101a0906001600160a01b031681565b6040516001600160a01b0390911681526020015b60405180910390f35b6102166101cb366004611e37565b60096020526000908152604090208054600182015460028301546003840154600485015460058601546006909601546001600160a01b03958616969486169590931693919290919087565b604080516001600160a01b039889168152968816602088015294909616938501939093526060840191909152608083015260a082015260c081019190915260e0016101b4565b61026f61026a366004611e9c565b610571565b6040519081526020016101b4565b61029061028b366004611e37565b610df0565b6040805182516001600160a01b039081168252602080850151821690830152838301511691810191909152606080830151908201526080808301519082015260a0808301519082015260c0918201519181019190915260e0016101b4565b61018b6102fc366004611e37565b610f0f565b61018b61030f366004611f2c565b610fa5565b6008546103219060ff1681565b60405190151581526020016101b4565b61018b61033f366004611f68565b61112d565b61026f61012c81565b61018b6111d5565b6000546001600160a01b03166101a0565b60055461026f565b61018b61037c366004611f8a565b6111e9565b61018b61038f366004611fb4565b6112a9565b61026f60055481565b61018b6103ab366004611f68565b6112f2565b61026f60065481565b6103cc6103c7366004611fd6565b61139a565b6040516101b49190612022565b6101a06103e7366004611f68565b6007602052600090815260409020546001600160a01b031681565b61018b610410366004611f68565b61141c565b61018b610423366004612066565b6114cf565b61018b610436366004611f68565b611635565b6003546101a0906001600160a01b031681565b6002546101a0906001600160a01b031681565b610469611673565b6001600160a01b0382166104c45760405162461bcd60e51b815260206004820152601f60248201527f4578656375746f723a20696e76616c696420746f6b656e20616464726573730060448201526064015b60405180910390fd5b6001600160a01b03811661051a5760405162461bcd60e51b815260206004820152601e60248201527f4578656375746f723a20696e76616c696420666565642061646472657373000060448201526064016104bb565b6001600160a01b0382811660008181526007602052604080822080546001600160a01b0319169486169485179055517f55aa6a9f60e3388f1e9d70c7952b410450e08d2fd0f6e8c3ec01fe7cede46d7d9190a35050565b6004546000906001600160a01b0316331461059e5760405162461bcd60e51b81526004016104bb906120e7565b6105a66116a0565b6001600160a01b0389166105fc5760405162461bcd60e51b815260206004820152601e60248201527f4578656375746f723a20696e76616c696420757365722061646472657373000060448201526064016104bb565b6001600160a01b03881661065c5760405162461bcd60e51b815260206004820152602160248201527f4578656375746f723a20696e76616c696420746f6b656e496e206164647265736044820152607360f81b60648201526084016104bb565b6001600160a01b0387166106bd5760405162461bcd60e51b815260206004820152602260248201527f4578656375746f723a20696e76616c696420746f6b656e4f7574206164647265604482015261737360f01b60648201526084016104bb565b6000861161071f5760405162461bcd60e51b815260206004820152602960248201527f4578656375746f723a20616d6f756e74496e206d75737420626520677265617460448201526806572207468616e20360bc1b60648201526084016104bb565b600085116107855760405162461bcd60e51b815260206004820152602d60248201527f4578656375746f723a20616d6f756e744f75744d696e206d757374206265206760448201526c0726561746572207468616e203609c1b60648201526084016104bb565b60028310156107d65760405162461bcd60e51b815260206004820152601d60248201527f4578656375746f723a20696e76616c69642070617468206c656e67746800000060448201526064016104bb565b876001600160a01b0316848460008181106107f3576107f3612132565b90506020020160208101906108089190611f68565b6001600160a01b03161461086d5760405162461bcd60e51b815260206004820152602660248201527f4578656375746f723a2070617468206d7573742073746172742077697468207460448201526537b5b2b724b760d11b60648201526084016104bb565b6001600160a01b038716848461088460018261215e565b81811061089357610893612132565b90506020020160208101906108a89190611f68565b6001600160a01b03161461090c5760405162461bcd60e51b815260206004820152602560248201527f4578656375746f723a2070617468206d75737420656e64207769746820746f6b604482015264195b93dd5d60da1b60648201526084016104bb565b600254604051630af4187d60e01b81526001600160a01b038b811660048301528a811660248301526000921690630af4187d90604401602060405180830381865afa15801561095f573d6000803e3d6000fd5b505050506040513d601f19601f820116820180604052508101906109839190612171565b9050868110156109e45760405162461bcd60e51b815260206004820152602660248201527f4578656375746f723a20696e73756666696369656e74207661756c7420616c6c6044820152656f77616e636560d01b60648201526084016104bb565b6109f0898989896116ca565b60025460405163dd8aaa4f60e01b81526001600160a01b038c811660048301528b81166024830152604482018a90529091169063dd8aaa4f90606401600060405180830381600087803b158015610a4657600080fd5b505af1158015610a5a573d6000803e3d6000fd5b5050600354610a7892506001600160a01b038c811692501689611929565b6003546000906001600160a01b03166338ed17398989898930610a9d61012c4261218a565b6040518763ffffffff1660e01b8152600401610abe969594939291906121e4565b6000604051808303816000875af1158015610add573d6000803e3d6000fd5b505050506040513d6000823e601f3d908101601f19168201604052610b059190810190612238565b90508060018251610b16919061215e565b81518110610b2657610b26612132565b6020026020010151925086831015610b8e5760405162461bcd60e51b815260206004820152602560248201527f4578656375746f723a20736c69707061676520746f6c6572616e636520657863604482015264195959195960da1b60648201526084016104bb565b600254610ba8906001600160a01b038b8116911685611929565b600254610bc2906001600160a01b038b81169116856119e7565b600254604051636a72f36560e11b81526001600160a01b038d811660048301528b81166024830152604482018690529091169063d4e5e6ca90606401600060405180830381600087803b158015610c1857600080fd5b505af1158015610c2c573d6000803e3d6000fd5b505050506040518060e001604052808c6001600160a01b031681526020018b6001600160a01b031681526020018a6001600160a01b031681526020018981526020018481526020014281526020018581525060096000600554815260200190815260200160002060008201518160000160006101000a8154816001600160a01b0302191690836001600160a01b0316021790555060208201518160010160006101000a8154816001600160a01b0302191690836001600160a01b0316021790555060408201518160020160006101000a8154816001600160a01b0302191690836001600160a01b03160217905550606082015181600301556080820151816004015560a0820151816005015560c082015181600601559050508a6001600160a01b03166005547f5f55503ce8bf7b2e727fd96a4085fca966d3162cd8997142575eb7829968f4238c8c8c88428b604051610dbc969594939291906001600160a01b03968716815294909516602085015260408401929092526060830152608082015260a081019190915260c00190565b60405180910390a360058054906000610dd4836122ea565b91905055505050610de460018055565b98975050505050505050565b610e4b6040518060e0016040528060006001600160a01b0316815260200160006001600160a01b0316815260200160006001600160a01b03168152602001600081526020016000815260200160008152602001600081525090565b6005548210610e9c5760405162461bcd60e51b815260206004820152601e60248201527f4578656375746f723a20747261646520646f6573206e6f74206578697374000060448201526064016104bb565b50600090815260096020908152604091829020825160e08101845281546001600160a01b03908116825260018301548116938201939093526002820154909216928201929092526003820154606082015260048201546080820152600582015460a082015260069091015460c082015290565b610f17611673565b6103e8811115610f695760405162461bcd60e51b815260206004820152601b60248201527f4578656375746f723a20736c69707061676520746f6f2068696768000000000060448201526064016104bb565b60068190556040518181527f9c922f6d0c990b250e9dd0a427a5c8da7f44b960f697fecb31cbbd8ba79ec8c2906020015b60405180910390a150565b6004546001600160a01b03163314610fcf5760405162461bcd60e51b81526004016104bb906120e7565b6001600160a01b03831661101e5760405162461bcd60e51b815260206004820152601660248201527522bc32b1baba37b91d1034b73b30b634b2103ab9b2b960511b60448201526064016104bb565b6001600160a01b03821661106e5760405162461bcd60e51b815260206004820152601760248201527622bc32b1baba37b91d1034b73b30b634b2103a37b5b2b760491b60448201526064016104bb565b60008111801561108057506127108111155b6110d65760405162461bcd60e51b815260206004820152602160248201527f4578656375746f723a20696e76616c6964206c6f73732070657263656e7461676044820152606560f81b60648201526084016104bb565b60405162461bcd60e51b815260206004820152602660248201527f4578656375746f723a2073746f704c6f7373206e6f742079657420696d706c656044820152651b595b9d195960d21b60648201526084016104bb565b611135611673565b6001600160a01b03811661118b5760405162461bcd60e51b815260206004820152601f60248201527f4578656375746f723a20696e76616c6964207661756c7420616464726573730060448201526064016104bb565b600280546001600160a01b0319166001600160a01b0383169081179091556040517fe7ae49f883c825b05681b3e00e8be6fdea9ed2a8a45e4c6ecb9390fc44cce61590600090a250565b6111dd611673565b6111e76000611a1d565b565b6111f1611673565b6001600160a01b0382166112415760405162461bcd60e51b815260206004820152601760248201527622bc32b1baba37b91d1034b73b30b634b2103a37b5b2b760491b60448201526064016104bb565b600081116112915760405162461bcd60e51b815260206004820152601860248201527f4578656375746f723a20696e76616c696420616d6f756e74000000000000000060448201526064016104bb565b6112a56001600160a01b03831633836119e7565b5050565b6112b1611673565b6008805460ff19168215159081179091556040519081527f2cee33d893b6f4ac7c37a62fd70ca668d6aa16e4bea626eaaef3f256456c1bb690602001610f9a565b6112fa611673565b6001600160a01b0381166113505760405162461bcd60e51b815260206004820181905260248201527f4578656375746f723a20696e76616c696420726f75746572206164647265737360448201526064016104bb565b600380546001600160a01b0319166001600160a01b0383169081179091556040517fc6b438e6a8a59579ce6a4406cbd203b740e0d47b458aae6596339bcd40c40d1590600090a250565b60035460405163d06ca61f60e01b81526060916001600160a01b03169063d06ca61f906113cf90879087908790600401612303565b600060405180830381865afa1580156113ec573d6000803e3d6000fd5b505050506040513d6000823e601f3d908101601f191682016040526114149190810190612238565b949350505050565b611424611673565b6001600160a01b0381166114855760405162461bcd60e51b815260206004820152602260248201527f4578656375746f723a20696e76616c6964206578656375746f72206164647265604482015261737360f01b60648201526084016104bb565b600480546001600160a01b0319166001600160a01b0383169081179091556040517f52762435f58790076157ea2a4914a5a4d0aa0eb421588891377692f7fd3bc08290600090a250565b6004546001600160a01b031633146114f95760405162461bcd60e51b81526004016104bb906120e7565b6001600160a01b0385166115485760405162461bcd60e51b815260206004820152601660248201527522bc32b1baba37b91d1034b73b30b634b2103ab9b2b960511b60448201526064016104bb565b8281146115975760405162461bcd60e51b815260206004820152601960248201527f4578656375746f723a206c656e677468206d69736d617463680000000000000060448201526064016104bb565b826115dd5760405162461bcd60e51b81526020600482015260166024820152754578656375746f723a20656d7074792061727261797360501b60448201526064016104bb565b60405162461bcd60e51b815260206004820152602760248201527f4578656375746f723a20726562616c616e6365206e6f742079657420696d706c604482015266195b595b9d195960ca1b60648201526084016104bb565b61163d611673565b6001600160a01b03811661166757604051631e4fbdf760e01b8152600060048201526024016104bb565b61167081611a1d565b50565b6000546001600160a01b031633146111e75760405163118cdaa760e01b81523360048201526024016104bb565b6002600154036116c357604051633ee5aeb560e01b815260040160405180910390fd5b6002600155565b60085460ff1615611923576001600160a01b03808516600090815260076020526040808220548684168352912054908216911681158061171157506001600160a01b038116155b1561171d575050611923565b600061172883611a6d565b9050600061173583611a6d565b90506000821161179a5760405162461bcd60e51b815260206004820152602a60248201527f4578656375746f723a20696e76616c6964206f7261636c65207072696365206660448201526937b9103a37b5b2b724b760b11b60648201526084016104bb565b600081116117fe5760405162461bcd60e51b815260206004820152602b60248201527f4578656375746f723a20696e76616c6964206f7261636c65207072696365206660448201526a1bdc881d1bdad95b93dd5d60aa1b60648201526084016104bb565b60008161180b8489612326565b611815919061233d565b9050600081871115611849578161182c818961215e565b61183890612710612326565b611842919061233d565b905061186d565b81611854888261215e565b61186090612710612326565b61186a919061233d565b90505b6006548111156118cb5760405162461bcd60e51b815260206004820152602360248201527f4578656375746f723a206f7261636c6520646576696174696f6e20657863656560448201526219195960ea1b60648201526084016104bb565b60408051838152602081018990529081018290526001600160a01b03808b1691908c16907f61bfc52c8c69d09542be238dbd4eb705844b9aef34b598ed3cd92ceb2c8fcbbf9060600160405180910390a35050505050505b50505050565b604080516001600160a01b038416602482015260448082018490528251808303909101815260649091019091526020810180516001600160e01b031663095ea7b360e01b17905261197a8482611d26565b611923576040516001600160a01b038481166024830152600060448301526119dd91869182169063095ea7b3906064015b604051602081830303815290604052915060e01b6020820180516001600160e01b038381831617835250505050611d77565b6119238482611d77565b6040516001600160a01b03838116602483015260448201839052611a1891859182169063a9059cbb906064016119ab565b505050565b600080546001600160a01b038381166001600160a01b0319831681178455604051919092169283917f8be0079c531659141344cd1fd0a4f28419497f9722a3daafe3b4186f6b6457e09190a35050565b600080829050600080600080846001600160a01b031663feaf968c6040518163ffffffff1660e01b815260040160a060405180830381865afa158015611ab7573d6000803e3d6000fd5b505050506040513d601f19601f82011682018060405250810190611adb9190612379565b94509450509350935060008313611b345760405162461bcd60e51b815260206004820152601e60248201527f4578656375746f723a20696e76616c6964206f7261636c65207072696365000060448201526064016104bb565b60008211611b8f5760405162461bcd60e51b815260206004820152602260248201527f4578656375746f723a206f7261636c65207072696365206e6f74207570646174604482015261195960f21b60648201526084016104bb565b8369ffffffffffffffffffff168169ffffffffffffffffffff161015611bf75760405162461bcd60e51b815260206004820152601b60248201527f4578656375746f723a207374616c65206f7261636c652064617461000000000060448201526064016104bb565b610e10611c04834261215e565b1115611c525760405162461bcd60e51b815260206004820152601e60248201527f4578656375746f723a206f7261636c6520707269636520746f6f206f6c64000060448201526064016104bb565b6000856001600160a01b031663313ce5676040518163ffffffff1660e01b8152600401602060405180830381865afa158015611c92573d6000803e3d6000fd5b505050506040513d601f19601f82011682018060405250810190611cb691906123c9565b905060128160ff161015611ceb57611ccf8160126123ec565b611cda90600a6124e9565b611ce49085612326565b9650611d1b565b60128160ff161115611d1757611d026012826123ec565b611d0d90600a6124e9565b611ce4908561233d565b8396505b505050505050919050565b6000806000806020600086516020880160008a5af192503d91506000519050828015611d6b57508115611d5c5780600114611d6b565b6000866001600160a01b03163b115b93505050505b92915050565b600080602060008451602086016000885af180611d9a576040513d6000823e3d81fd5b50506000513d91508115611db2578060011415611dbf565b6001600160a01b0384163b155b1561192357604051635274afe760e01b81526001600160a01b03851660048201526024016104bb565b80356001600160a01b0381168114611dff57600080fd5b919050565b60008060408385031215611e1757600080fd5b611e2083611de8565b9150611e2e60208401611de8565b90509250929050565b600060208284031215611e4957600080fd5b5035919050565b60008083601f840112611e6257600080fd5b50813567ffffffffffffffff811115611e7a57600080fd5b6020830191508360208260051b8501011115611e9557600080fd5b9250929050565b60008060008060008060008060e0898b031215611eb857600080fd5b611ec189611de8565b9750611ecf60208a01611de8565b9650611edd60408a01611de8565b9550606089013594506080890135935060a089013567ffffffffffffffff811115611f0757600080fd5b611f138b828c01611e50565b999c989b50969995989497949560c00135949350505050565b600080600060608486031215611f4157600080fd5b611f4a84611de8565b9250611f5860208501611de8565b9150604084013590509250925092565b600060208284031215611f7a57600080fd5b611f8382611de8565b9392505050565b60008060408385031215611f9d57600080fd5b611fa683611de8565b946020939093013593505050565b600060208284031215611fc657600080fd5b81358015158114611f8357600080fd5b600080600060408486031215611feb57600080fd5b83359250602084013567ffffffffffffffff81111561200957600080fd5b61201586828701611e50565b9497909650939450505050565b6020808252825182820181905260009190848201906040850190845b8181101561205a5783518352928401929184019160010161203e565b50909695505050505050565b60008060008060006060868803121561207e57600080fd5b61208786611de8565b9450602086013567ffffffffffffffff808211156120a457600080fd5b6120b089838a01611e50565b909650945060408801359150808211156120c957600080fd5b506120d688828901611e50565b969995985093965092949392505050565b6020808252602b908201527f4578656375746f723a2063616c6c6572206973206e6f7420617574686f72697a60408201526a32b21032bc32b1baba37b960a91b606082015260800190565b634e487b7160e01b600052603260045260246000fd5b634e487b7160e01b600052601160045260246000fd5b81810381811115611d7157611d71612148565b60006020828403121561218357600080fd5b5051919050565b80820180821115611d7157611d71612148565b8183526000602080850194508260005b858110156121d9576001600160a01b036121c683611de8565b16875295820195908201906001016121ad565b509495945050505050565b86815285602082015260a06040820152600061220460a08301868861219d565b6001600160a01b039490941660608301525060800152949350505050565b634e487b7160e01b600052604160045260246000fd5b6000602080838503121561224b57600080fd5b825167ffffffffffffffff8082111561226357600080fd5b818501915085601f83011261227757600080fd5b81518181111561228957612289612222565b8060051b604051601f19603f830116810181811085821117156122ae576122ae612222565b6040529182528482019250838101850191888311156122cc57600080fd5b938501935b82851015610de4578451845293850193928501926122d1565b6000600182016122fc576122fc612148565b5060010190565b83815260406020820152600061231d60408301848661219d565b95945050505050565b8082028115828204841417611d7157611d71612148565b60008261235a57634e487b7160e01b600052601260045260246000fd5b500490565b805169ffffffffffffffffffff81168114611dff57600080fd5b600080600080600060a0868803121561239157600080fd5b61239a8661235f565b94506020860151935060408601519250606086015191506123bd6080870161235f565b90509295509295909350565b6000602082840312156123db57600080fd5b815160ff81168114611f8357600080fd5b60ff8281168282160390811115611d7157611d71612148565b600181815b8085111561244057816000190482111561242657612426612148565b8085161561243357918102915b93841c939080029061240a565b509250929050565b60008261245757506001611d71565b8161246457506000611d71565b816001811461247a5760028114612484576124a0565b6001915050611d71565b60ff84111561249557612495612148565b50506001821b611d71565b5060208310610133831016604e8410600b84101617156124c3575081810a611d71565b6124cd8383612405565b80600019048211156124e1576124e1612148565b029392505050565b6000611f8360ff84168361244856fea2646970667358221220a361216b4368f405cbc22542973d8d1122814908e6e31efaf453af7ce92ebe9264736f6c63430008140033",
  "linkReferences": {},
  "deployedLinkReferences": {}
}