{
  "_format": "hh-sol-artifact-1",
  "contractName": "Vault",
  "sourceName": "contracts/Vault.sol",
  "abi": [
    {
      "inputs": [],
      "stateMutability": "nonpayable",
      "type": "constructor"
    },
    {
      "inputs": [
        {
          "internalType": "address",
          "name": "owner",
          "type": "address"
        }
      ],
      "name": "OwnableInvalidOwner",
      "type": "error"
    },
    {
      "inputs": [
        {
          "internalType": "address",
          "name": "account",
          "type": "address"
        }
      ],
      "name": "OwnableUnauthorizedAccount",
      "type": "error"
    },
    {
      "inputs": [],
      "name": "ReentrancyGuardReentrantCall",
      "type": "error"
    },
    {
      "inputs": [
        {
          "internalType": "address",
          "name": "token",
          "type": "address"
        }
      ],
      "name": "SafeERC20FailedOperation",
      "type": "error"
    },
    {
      "anonymous": false,
      "inputs": [
        {
          "indexed": true,
          "internalType": "address",
          "name": "user",
          "type": "address"
        },
        {
          "indexed": true,
          "internalType": "address",
          "name": "token",
          "type": "address"
        },
        {
          "indexed": false,
          "internalType": "uint256",
          "name": "amount",
          "type": "uint256"
        }
      ],
      "name": "AllowanceSet",
      "type": "event"
    },
    {
      "anonymous": false,
      "inputs": [
        {
          "indexed": true,
          "internalType": "address",
          "name": "user",
          "type": "address"
        },
        {
          "indexed": true,
          "internalType": "address",
          "name": "token",
          "type": "address"
        },
        {
          "indexed": false,
          "internalType": "uint256",
          "name": "amount",
          "type": "uint256"
        }
      ],
      "name": "Deposited",
      "type": "event"
    },
    {
      "anonymous": false,
      "inputs": [
        {
          "indexed": true,
          "internalType": "address",
          "name": "executor",
          "type": "address"
        }
      ],
      "name": "ExecutorApproved",
      "type": "event"
    },
    {
      "anonymous": false,
      "inputs": [
        {
          "indexed": true,
          "internalType": "address",
          "name": "user",
          "type": "address"
        },
        {
          "indexed": true,
          "internalType": "address",
          "name": "token",
          "type": "address"
        },
        {
          "indexed": false,
          "internalType": "uint256",
          "name": "amount",
          "type": "uint256"
        }
      ],
      "name": "ExecutorSpent",
      "type": "event"
    },
    {
      "anonymous": false,
      "inputs": [
        {
          "indexed": true,
          "internalType": "address",
          "name": "previousOwner",
          "type": "address"
        },
        {
          "indexed": true,
          "internalType": "address",
          "name": "newOwner",
          "type": "address"
        }
      ],
      "name": "OwnershipTransferred",
      "type": "event"
    },
    {
      "anonymous": false,
      "inputs": [
        {
          "indexed": true,
          "internalType": "address",
          "name": "user",
          "type": "address"
        },
        {
          "indexed": true,
          "internalType": "address",
          "name": "token",
          "type": "address"
        },
        {
          "indexed": false,
          "internalType": "uint256",
          "name": "amount",
          "type": "uint256"
        }
      ],
      "name": "Withdrawn",
      "type": "event"
    },
    {
      "inputs": [
        {
          "internalType": "address",
          "name": "_executor",
          "type": "address"
        }
      ],
      "name": "approveExecutor",
      "outputs": [],
      "stateMutability": "nonpayable",
      "type": "function"
    },
    {
      "inputs": [
        {
          "internalType": "address",
          "name": "token",
          "type": "address"
        },
        {
          "internalType": "uint256",
          "name": "amount",
          "type": "uint256"
        }
      ],
      "name": "approveExecutorAllowance",
      "outputs": [],
      "stateMutability": "nonpayable",
      "type": "function"
    },
    {
      "inputs": [
        {
          "internalType": "address",
          "name": "user",
          "type": "address"
        },
        {
          "internalType": "address",
          "name": "token",
          "type": "address"
        },
        {
          "internalType": "uint256",
          "name": "amount",
          "type": "uint256"
        }
      ],
      "name": "creditUser",
      "outputs": [],
      "stateMutability": "nonpayable",
      "type": "function"
    },
    {
      "inputs": [
        {
          "internalType": "address",
          "name": "token",
          "type": "address"
        },
        {
          "internalType": "uint256",
          "name": "amount",
          "type": "uint256"
        }
      ],
      "name": "deposit",
      "outputs": [],
      "stateMutability": "nonpayable",
      "type": "function"
    },
    {
      "inputs": [],
      "name": "executor",
      "outputs": [
        {
          "internalType": "address",
          "name": "",
          "type": "address"
        }
      ],
      "stateMutability": "view",
      "type": "function"
    },
    {
      "inputs": [
        {
          "internalType": "address",
          "name": "",
          "type": "address"
        },
        {
          "internalType": "address",
          "name": "",
          "type": "address"
        }
      ],
      "name": "executorAllowances",
      "outputs": [
        {
          "internalType": "uint256",
          "name": "",
          "type": "uint256"
        }
      ],
      "stateMutability": "view",
      "type": "function"
    },
    {
      "inputs": [
        {
          "internalType": "address",
          "name": "user",
          "type": "address"
        },
        {
          "internalType": "address",
          "name": "token",
          "type": "address"
        }
      ],
      "name": "getAllowance",
      "outputs": [
        {
          "internalType": "uint256",
          "name": "",
          "type": "uint256"
        }
      ],
      "stateMutability": "view",
      "type": "function"
    },
    {
      "inputs": [
        {
          "internalType": "address",
          "name": "user",
          "type": "address"
        },
        {
          "internalType": "address",
          "name": "token",
          "type": "address"
        }
      ],
      "name": "getBalance",
      "outputs": [
        {
          "internalType": "uint256",
          "name": "",
          "type": "uint256"
        }
      ],
      "stateMutability": "view",
      "type": "function"
    },
    {
      "inputs": [
        {
          "internalType": "address",
          "name": "token",
          "type": "address"
        }
      ],
      "name": "getVaultBalance",
      "outputs": [
        {
          "internalType": "uint256",
          "name": "",
          "type": "uint256"
        }
      ],
      "stateMutability": "view",
      "type": "function"
    },
    {
      "inputs": [],
      "name": "owner",
      "outputs": [
        {
          "internalType": "address",
          "name": "",
          "type": "address"
        }
      ],
      "stateMutability": "view",
      "type": "function"
    },
    {
      "inputs": [],
      "name": "renounceOwnership",
      "outputs": [],
      "stateMutability": "nonpayable",
      "type": "function"
    },
    {
      "inputs": [
        {
          "internalType": "address",
          "name": "user",
          "type": "address"
        },
        {
          "internalType": "address",
          "name": "token",
          "type": "address"
        },
        {
          "internalType": "uint256",
          "name": "amount",
          "type": "uint256"
        }
      ],
      "name": "spendAllowance",
      "outputs": [],
      "stateMutability": "nonpayable",
      "type": "function"
    },
    {
      "inputs": [
        {
          "internalType": "address",
          "name": "newOwner",
          "type": "address"
        }
      ],
      "name": "transferOwnership",
      "outputs": [],
      "stateMutability": "nonpayable",
      "type": "function"
    },
    {
      "inputs": [
        {
          "internalType": "address",
          "name": "",
          "type": "address"
        },
        {
          "internalType": "address",
          "name": "",
          "type": "address"
        }
      ],
      "name": "userBalances",
      "outputs": [
        {
          "internalType": "uint256",
          "name": "",
          "type": "uint256"
        }
      ],
      "stateMutability": "view",
      "type": "function"
    },
    {
      "inputs": [
        {
          "internalType": "address",
          "name": "token",
          "type": "address"
        },
        {
          "internalType": "uint256",
          "name": "amount",
          "type": "uint256"
        }
      ],
      "name": "withdraw",
      "outputs": [],
      "stateMutability": "nonpayable",
      "type": "function"
    }
  ],
  "bytecode": "0x608060405234801561001057600080fd5b50338061003757604051631e4fbdf760e01b81526000600482015260240160405180910390fd5b6100408161004a565b506001805561009a565b600080546001600160a01b038381166001600160a01b0319831681178455604051919092169283917f8be0079c531659141344cd1fd0a4f28419497f9722a3daafe3b4186f6b6457e09190a35050565b610f00806100a96000396000f3fe608060405234801561001057600080fd5b50600436106100f55760003560e01c8063adb5198011610097578063d4fac45d11610066578063d4fac45d14610217578063dd8aaa4f14610250578063f2fde38b14610263578063f3fef3a31461027657600080fd5b8063adb51980146101b3578063c34c08e5146101de578063d3d7c002146101f1578063d4e5e6ca1461020457600080fd5b806347e7ef24116100d357806347e7ef24146101605780636aedcf2814610173578063715018a6146101865780638da5cb5b1461018e57600080fd5b80630af4187d146100fa578063359c5ff01461012057806339b8ed241461014b575b600080fd5b61010d610108366004610d76565b610289565b6040519081526020015b60405180910390f35b61010d61012e366004610d76565b600360209081526000928352604080842090915290825290205481565b61015e610159366004610da9565b6102b6565b005b61015e61016e366004610da9565b61044d565b61015e610181366004610dd3565b610566565b61015e61060e565b6000546001600160a01b03165b6040516001600160a01b039091168152602001610117565b61010d6101c1366004610d76565b600260209081526000928352604080842090915290825290205481565b60045461019b906001600160a01b031681565b61010d6101ff366004610dd3565b610622565b61015e610212366004610df5565b61068d565b61010d610225366004610d76565b6001600160a01b03918216600090815260026020908152604080832093909416825291909152205490565b61015e61025e366004610df5565b6107fe565b61015e610271366004610dd3565b610a41565b61015e610284366004610da9565b610a7f565b6001600160a01b038083166000908152600360209081526040808320938516835292905220545b92915050565b6004546001600160a01b03166103135760405162461bcd60e51b815260206004820152601760248201527f5661756c743a206578656375746f72206e6f742073657400000000000000000060448201526064015b60405180910390fd5b6001600160a01b0382166103695760405162461bcd60e51b815260206004820152601c60248201527f5661756c743a20696e76616c696420746f6b656e206164647265737300000000604482015260640161030a565b3360009081526002602090815260408083206001600160a01b03861684529091529020548111156103ee5760405162461bcd60e51b815260206004820152602960248201527f5661756c743a20696e73756666696369656e742062616c616e636520666f7220604482015268616c6c6f77616e636560b81b606482015260840161030a565b3360008181526003602090815260408083206001600160a01b03871680855290835292819020859055518481529192917f35b43951b46e772259ca8b566c89beccb8d46513d2e0388b81504e7d27784f29910160405180910390a35050565b610455610ba4565b600081116104755760405162461bcd60e51b815260040161030a90610e31565b6001600160a01b0382166104cb5760405162461bcd60e51b815260206004820152601c60248201527f5661756c743a20696e76616c696420746f6b656e206164647265737300000000604482015260640161030a565b6104e06001600160a01b038316333084610bce565b3360009081526002602090815260408083206001600160a01b038616845290915281208054839290610513908490610e8b565b90915550506040518181526001600160a01b0383169033907f8752a472e571a816aea92eec8dae9baf628e840f4929fbcc2d155e6233ff68a7906020015b60405180910390a361056260018055565b5050565b61056e610c3b565b6001600160a01b0381166105c45760405162461bcd60e51b815260206004820152601f60248201527f5661756c743a20696e76616c6964206578656375746f72206164647265737300604482015260640161030a565b600480546001600160a01b0319166001600160a01b0383169081179091556040517fe0a91202898d5ae273647cb7d2fd1f02567e0a395e0caa6165f4163ee48c194a90600090a250565b610616610c3b565b6106206000610c68565b565b6040516370a0823160e01b81523060048201526000906001600160a01b038316906370a0823190602401602060405180830381865afa158015610669573d6000803e3d6000fd5b505050506040513d601f19601f820116820180604052508101906102b09190610e9e565b610695610ba4565b6004546001600160a01b031633146106ef5760405162461bcd60e51b815260206004820152601d60248201527f5661756c743a2063616c6c6572206973206e6f74206578656375746f72000000604482015260640161030a565b6000811161070f5760405162461bcd60e51b815260040161030a90610e31565b6001600160a01b0383166107655760405162461bcd60e51b815260206004820152601b60248201527f5661756c743a20696e76616c6964207573657220616464726573730000000000604482015260640161030a565b6001600160a01b0380841660009081526002602090815260408083209386168352929052908120805483929061079c908490610e8b565b92505081905550816001600160a01b0316836001600160a01b03167f8752a472e571a816aea92eec8dae9baf628e840f4929fbcc2d155e6233ff68a7836040516107e891815260200190565b60405180910390a36107f960018055565b505050565b610806610ba4565b6004546001600160a01b031633146108605760405162461bcd60e51b815260206004820152601d60248201527f5661756c743a2063616c6c6572206973206e6f74206578656375746f72000000604482015260640161030a565b600081116108805760405162461bcd60e51b815260040161030a90610e31565b6001600160a01b038084166000908152600360209081526040808320938616835292905220548111156108f55760405162461bcd60e51b815260206004820152601960248201527f5661756c743a20616c6c6f77616e636520657863656564656400000000000000604482015260640161030a565b6001600160a01b0380841660009081526002602090815260408083209386168352929052205481111561096a5760405162461bcd60e51b815260206004820181905260248201527f5661756c743a20696e73756666696369656e7420757365722062616c616e6365604482015260640161030a565b6001600160a01b038084166000908152600360209081526040808320938616835292905290812080548392906109a1908490610eb7565b90915550506001600160a01b038084166000908152600260209081526040808320938616835292905290812080548392906109dd908490610eb7565b90915550506004546109fc906001600160a01b03848116911683610cb8565b816001600160a01b0316836001600160a01b03167f195cb04ea477c2dee4384ee5b52228d443f44752b997512247447d89009c910d836040516107e891815260200190565b610a49610c3b565b6001600160a01b038116610a7357604051631e4fbdf760e01b81526000600482015260240161030a565b610a7c81610c68565b50565b610a87610ba4565b60008111610aa75760405162461bcd60e51b815260040161030a90610e31565b3360009081526002602090815260408083206001600160a01b0386168452909152902054811115610b1a5760405162461bcd60e51b815260206004820152601b60248201527f5661756c743a20696e73756666696369656e742062616c616e63650000000000604482015260640161030a565b3360009081526002602090815260408083206001600160a01b038616845290915281208054839290610b4d908490610eb7565b90915550610b6790506001600160a01b0383163383610cb8565b6040518181526001600160a01b0383169033907fd1c19fbcd4551a5edfb66d43d2e337c04837afda3482b42bdf569a8fccdae5fb90602001610551565b600260015403610bc757604051633ee5aeb560e01b815260040160405180910390fd5b6002600155565b6040516001600160a01b038481166024830152838116604483015260648201839052610c359186918216906323b872dd906084015b604051602081830303815290604052915060e01b6020820180516001600160e01b038381831617835250505050610ce9565b50505050565b6000546001600160a01b031633146106205760405163118cdaa760e01b815233600482015260240161030a565b600080546001600160a01b038381166001600160a01b0319831681178455604051919092169283917f8be0079c531659141344cd1fd0a4f28419497f9722a3daafe3b4186f6b6457e09190a35050565b6040516001600160a01b038381166024830152604482018390526107f991859182169063a9059cbb90606401610c03565b600080602060008451602086016000885af180610d0c576040513d6000823e3d81fd5b50506000513d91508115610d24578060011415610d31565b6001600160a01b0384163b155b15610c3557604051635274afe760e01b81526001600160a01b038516600482015260240161030a565b80356001600160a01b0381168114610d7157600080fd5b919050565b60008060408385031215610d8957600080fd5b610d9283610d5a565b9150610da060208401610d5a565b90509250929050565b60008060408385031215610dbc57600080fd5b610dc583610d5a565b946020939093013593505050565b600060208284031215610de557600080fd5b610dee82610d5a565b9392505050565b600080600060608486031215610e0a57600080fd5b610e1384610d5a565b9250610e2160208501610d5a565b9150604084013590509250925092565b60208082526024908201527f5661756c743a20616d6f756e74206d75737420626520677265617465722074686040820152630616e20360e41b606082015260800190565b634e487b7160e01b600052601160045260246000fd5b808201808211156102b0576102b0610e75565b600060208284031215610eb057600080fd5b5051919050565b818103818111156102b0576102b0610e7556fea264697066735822122004b8010939f5f760c4a080e047896190259b1bbbd066c6c06ffe61742e2d0f0c64736f6c63430008140033",
  "linkReferences": {},
  "deployedLinkReferences": {}
}